{
  "_format": "hh-sol-artifact-1",
  "contractName": "gasChallenge",
  "sourceName": "contracts/gasChallenge.sol",
  "abi": [
    {
      "inputs": [],
      "stateMutability": "nonpayable",
      "type": "constructor"
    },
    {
      "inputs": [],
      "name": "getSumOfArray",
      "outputs": [
        {
          "internalType": "uint256",
          "name": "",
          "type": "uint256"
        }
      ],
      "stateMutability": "view",
      "type": "function"
    },
    {
      "inputs": [],
      "name": "notOptimizedFunction",
      "outputs": [],
      "stateMutability": "nonpayable",
      "type": "function"
    },
    {
      "inputs": [],
      "name": "optimizedFunction",
      "outputs": [],
      "stateMutability": "nonpayable",
      "type": "function"
    }
  ],
  "bytecode": "0x608060405234801561001057600080fd5b5060005b600a8110156100565760018161002a9190610095565b600082600a811061003e5761003d6100c9565b5b0181905550808061004e906100f8565b915050610014565b50610140565b6000819050919050565b7f4e487b7100000000000000000000000000000000000000000000000000000000600052601160045260246000fd5b60006100a08261005c565b91506100ab8361005c565b92508282019050808211156100c3576100c2610066565b5b92915050565b7f4e487b7100000000000000000000000000000000000000000000000000000000600052603260045260246000fd5b60006101038261005c565b91507fffffffffffffffffffffffffffffffffffffffffffffffffffffffffffffffff820361013557610134610066565b5b600182019050919050565b6103388061014f6000396000f3fe608060405234801561001057600080fd5b50600436106100415760003560e01c806368b5f223146100465780637ce418941461005057806380d2c8031461005a575b600080fd5b61004e610078565b005b6100586100b4565b005b610062610146565b60405161006f919061020d565b60405180910390f35b60005b600a8110156100b15760008082600a811061009957610098610228565b5b018190555080806100a990610286565b91505061007b565b50565b600080600a806020026040519081016040528092919082600a80156100ee576020028201915b8154815260200190600101908083116100da575b505050505090506000600a905060005b8181101561012f5760008382600a811061011b5761011a610228565b5b6020020181815250508060010190506100fe565b5081600090600a610141929190610197565b505050565b6000806000905060005b600a81101561018f57600081600a811061016d5761016c610228565b5b01548261017a91906102ce565b9150808061018790610286565b915050610150565b508091505090565b82600a81019282156101c6579160200282015b828111156101c55782518255916020019190600101906101aa565b5b5090506101d391906101d7565b5090565b5b808211156101f05760008160009055506001016101d8565b5090565b6000819050919050565b610207816101f4565b82525050565b600060208201905061022260008301846101fe565b92915050565b7f4e487b7100000000000000000000000000000000000000000000000000000000600052603260045260246000fd5b7f4e487b7100000000000000000000000000000000000000000000000000000000600052601160045260246000fd5b6000610291826101f4565b91507fffffffffffffffffffffffffffffffffffffffffffffffffffffffffffffffff82036102c3576102c2610257565b5b600182019050919050565b60006102d9826101f4565b91506102e4836101f4565b92508282019050808211156102fc576102fb610257565b5b9291505056fea2646970667358221220615a8a8eb0fd6529fae69d35fca6b4956a4065c5074deececd81e1603a75a2b764736f6c63430008120033",
  "linkReferences": {},
  "deployedLinkReferences": {}
}