{"contracts/gasChallenge.sol":{"gasChallenge":{"abi":[{"inputs":[],"stateMutability":"nonpayable","type":"constructor"},{"inputs":[],"name":"getSumOfArray","outputs":[{"internalType":"uint256","name":"","type":"uint256"}],"stateMutability":"view","type":"function"},{"inputs":[],"name":"notOptimizedFunction","outputs":[],"stateMutability":"nonpayable","type":"function"},{"inputs":[],"name":"optimizedFunction","outputs":[],"stateMutability":"nonpayable","type":"function"}],"evm":{"bytecode":{"linkReferences":{},"object":"608060405234801561001057600080fd5b5060005b600a8110156100565760018161002a9190610095565b600082600a811061003e5761003d6100c9565b5b0181905550808061004e906100f8565b915050610014565b50610140565b6000819050919050565b7f4e487b7100000000000000000000000000000000000000000000000000000000600052601160045260246000fd5b60006100a08261005c565b91506100ab8361005c565b92508282019050808211156100c3576100c2610066565b5b92915050565b7f4e487b7100000000000000000000000000000000000000000000000000000000600052603260045260246000fd5b60006101038261005c565b91507fffffffffffffffffffffffffffffffffffffffffffffffffffffffffffffffff820361013557610134610066565b5b600182019050919050565b6103388061014f6000396000f3fe608060405234801561001057600080fd5b50600436106100415760003560e01c806368b5f223146100465780637ce418941461005057806380d2c8031461005a575b600080fd5b61004e610078565b005b6100586100b4565b005b610062610146565b60405161006f919061020d565b60405180910390f35b60005b600a8110156100b15760008082600a811061009957610098610228565b5b018190555080806100a990610286565b91505061007b565b50565b600080600a806020026040519081016040528092919082600a80156100ee576020028201915b8154815260200190600101908083116100da575b505050505090506000600a905060005b8181101561012f5760008382600a811061011b5761011a610228565b5b6020020181815250508060010190506100fe565b5081600090600a610141929190610197565b505050565b6000806000905060005b600a81101561018f57600081600a811061016d5761016c610228565b5b01548261017a91906102ce565b9150808061018790610286565b915050610150565b508091505090565b82600a81019282156101c6579160200282015b828111156101c55782518255916020019190600101906101aa565b5b5090506101d391906101d7565b5090565b5b808211156101f05760008160009055506001016101d8565b5090565b6000819050919050565b610207816101f4565b82525050565b600060208201905061022260008301846101fe565b92915050565b7f4e487b7100000000000000000000000000000000000000000000000000000000600052603260045260246000fd5b7f4e487b7100000000000000000000000000000000000000000000000000000000600052601160045260246000fd5b6000610291826101f4565b91507fffffffffffffffffffffffffffffffffffffffffffffffffffffffffffffffff82036102c3576102c2610257565b5b600182019050919050565b60006102d9826101f4565b91506102e4836101f4565b92508282019050808211156102fc576102fb610257565b5b9291505056fea2646970667358221220615a8a8eb0fd6529fae69d35fca6b4956a4065c5074deececd81e1603a75a2b764736f6c63430008120033","opcodes":"PUSH1 0x80 PUSH1 0x40 MSTORE CALLVALUE DUP1 ISZERO PUSH2 0x10 JUMPI PUSH1 0x0 DUP1 REVERT JUMPDEST POP PUSH1 0x0 JUMPDEST PUSH1 0xA DUP2 LT ISZERO PUSH2 0x56 JUMPI PUSH1 0x1 DUP2 PUSH2 0x2A SWAP2 SWAP1 PUSH2 0x95 JUMP JUMPDEST PUSH1 0x0 DUP3 PUSH1 0xA DUP2 LT PUSH2 0x3E JUMPI PUSH2 0x3D PUSH2 0xC9 JUMP JUMPDEST JUMPDEST ADD DUP2 SWAP1 SSTORE POP DUP1 DUP1 PUSH2 0x4E SWAP1 PUSH2 0xF8 JUMP JUMPDEST SWAP2 POP POP PUSH2 0x14 JUMP JUMPDEST POP PUSH2 0x140 JUMP JUMPDEST PUSH1 0x0 DUP2 SWAP1 POP SWAP2 SWAP1 POP JUMP JUMPDEST PUSH32 0x4E487B7100000000000000000000000000000000000000000000000000000000 PUSH1 0x0 MSTORE PUSH1 0x11 PUSH1 0x4 MSTORE PUSH1 0x24 PUSH1 0x0 REVERT JUMPDEST PUSH1 0x0 PUSH2 0xA0 DUP3 PUSH2 0x5C JUMP JUMPDEST SWAP2 POP PUSH2 0xAB DUP4 PUSH2 0x5C JUMP JUMPDEST SWAP3 POP DUP3 DUP3 ADD SWAP1 POP DUP1 DUP3 GT ISZERO PUSH2 0xC3 JUMPI PUSH2 0xC2 PUSH2 0x66 JUMP JUMPDEST JUMPDEST SWAP3 SWAP2 POP POP JUMP JUMPDEST PUSH32 0x4E487B7100000000000000000000000000000000000000000000000000000000 PUSH1 0x0 MSTORE PUSH1 0x32 PUSH1 0x4 MSTORE PUSH1 0x24 PUSH1 0x0 REVERT JUMPDEST PUSH1 0x0 PUSH2 0x103 DUP3 PUSH2 0x5C JUMP JUMPDEST SWAP2 POP PUSH32 0xFFFFFFFFFFFFFFFFFFFFFFFFFFFFFFFFFFFFFFFFFFFFFFFFFFFFFFFFFFFFFFFF DUP3 SUB PUSH2 0x135 JUMPI PUSH2 0x134 PUSH2 0x66 JUMP JUMPDEST JUMPDEST PUSH1 0x1 DUP3 ADD SWAP1 POP SWAP2 SWAP1 POP JUMP JUMPDEST PUSH2 0x338 DUP1 PUSH2 0x14F PUSH1 0x0 CODECOPY PUSH1 0x0 RETURN INVALID PUSH1 0x80 PUSH1 0x40 MSTORE CALLVALUE DUP1 ISZERO PUSH2 0x10 JUMPI PUSH1 0x0 DUP1 REVERT JUMPDEST POP PUSH1 0x4 CALLDATASIZE LT PUSH2 0x41 JUMPI PUSH1 0x0 CALLDATALOAD PUSH1 0xE0 SHR DUP1 PUSH4 0x68B5F223 EQ PUSH2 0x46 JUMPI DUP1 PUSH4 0x7CE41894 EQ PUSH2 0x50 JUMPI DUP1 PUSH4 0x80D2C803 EQ PUSH2 0x5A JUMPI JUMPDEST PUSH1 0x0 DUP1 REVERT JUMPDEST PUSH2 0x4E PUSH2 0x78 JUMP JUMPDEST STOP JUMPDEST PUSH2 0x58 PUSH2 0xB4 JUMP JUMPDEST STOP JUMPDEST PUSH2 0x62 PUSH2 0x146 JUMP JUMPDEST PUSH1 0x40 MLOAD PUSH2 0x6F SWAP2 SWAP1 PUSH2 0x20D JUMP JUMPDEST PUSH1 0x40 MLOAD DUP1 SWAP2 SUB SWAP1 RETURN JUMPDEST PUSH1 0x0 JUMPDEST PUSH1 0xA DUP2 LT ISZERO PUSH2 0xB1 JUMPI PUSH1 0x0 DUP1 DUP3 PUSH1 0xA DUP2 LT PUSH2 0x99 JUMPI PUSH2 0x98 PUSH2 0x228 JUMP JUMPDEST JUMPDEST ADD DUP2 SWAP1 SSTORE POP DUP1 DUP1 PUSH2 0xA9 SWAP1 PUSH2 0x286 JUMP JUMPDEST SWAP2 POP POP PUSH2 0x7B JUMP JUMPDEST POP JUMP JUMPDEST PUSH1 0x0 DUP1 PUSH1 0xA DUP1 PUSH1 0x20 MUL PUSH1 0x40 MLOAD SWAP1 DUP2 ADD PUSH1 0x40 MSTORE DUP1 SWAP3 SWAP2 SWAP1 DUP3 PUSH1 0xA DUP1 ISZERO PUSH2 0xEE JUMPI PUSH1 0x20 MUL DUP3 ADD SWAP2 JUMPDEST DUP2 SLOAD DUP2 MSTORE PUSH1 0x20 ADD SWAP1 PUSH1 0x1 ADD SWAP1 DUP1 DUP4 GT PUSH2 0xDA JUMPI JUMPDEST POP POP POP POP POP SWAP1 POP PUSH1 0x0 PUSH1 0xA SWAP1 POP PUSH1 0x0 JUMPDEST DUP2 DUP2 LT ISZERO PUSH2 0x12F JUMPI PUSH1 0x0 DUP4 DUP3 PUSH1 0xA DUP2 LT PUSH2 0x11B JUMPI PUSH2 0x11A PUSH2 0x228 JUMP JUMPDEST JUMPDEST PUSH1 0x20 MUL ADD DUP2 DUP2 MSTORE POP POP DUP1 PUSH1 0x1 ADD SWAP1 POP PUSH2 0xFE JUMP JUMPDEST POP DUP2 PUSH1 0x0 SWAP1 PUSH1 0xA PUSH2 0x141 SWAP3 SWAP2 SWAP1 PUSH2 0x197 JUMP JUMPDEST POP POP POP JUMP JUMPDEST PUSH1 0x0 DUP1 PUSH1 0x0 SWAP1 POP PUSH1 0x0 JUMPDEST PUSH1 0xA DUP2 LT ISZERO PUSH2 0x18F JUMPI PUSH1 0x0 DUP2 PUSH1 0xA DUP2 LT PUSH2 0x16D JUMPI PUSH2 0x16C PUSH2 0x228 JUMP JUMPDEST JUMPDEST ADD SLOAD DUP3 PUSH2 0x17A SWAP2 SWAP1 PUSH2 0x2CE JUMP JUMPDEST SWAP2 POP DUP1 DUP1 PUSH2 0x187 SWAP1 PUSH2 0x286 JUMP JUMPDEST SWAP2 POP POP PUSH2 0x150 JUMP JUMPDEST POP DUP1 SWAP2 POP POP SWAP1 JUMP JUMPDEST DUP3 PUSH1 0xA DUP2 ADD SWAP3 DUP3 ISZERO PUSH2 0x1C6 JUMPI SWAP2 PUSH1 0x20 MUL DUP3 ADD JUMPDEST DUP3 DUP2 GT ISZERO PUSH2 0x1C5 JUMPI DUP3 MLOAD DUP3 SSTORE SWAP2 PUSH1 0x20 ADD SWAP2 SWAP1 PUSH1 0x1 ADD SWAP1 PUSH2 0x1AA JUMP JUMPDEST JUMPDEST POP SWAP1 POP PUSH2 0x1D3 SWAP2 SWAP1 PUSH2 0x1D7 JUMP JUMPDEST POP SWAP1 JUMP JUMPDEST JUMPDEST DUP1 DUP3 GT ISZERO PUSH2 0x1F0 JUMPI PUSH1 0x0 DUP2 PUSH1 0x0 SWAP1 SSTORE POP PUSH1 0x1 ADD PUSH2 0x1D8 JUMP JUMPDEST POP SWAP1 JUMP JUMPDEST PUSH1 0x0 DUP2 SWAP1 POP SWAP2 SWAP1 POP JUMP JUMPDEST PUSH2 0x207 DUP2 PUSH2 0x1F4 JUMP JUMPDEST DUP3 MSTORE POP POP JUMP JUMPDEST PUSH1 0x0 PUSH1 0x20 DUP3 ADD SWAP1 POP PUSH2 0x222 PUSH1 0x0 DUP4 ADD DUP5 PUSH2 0x1FE JUMP JUMPDEST SWAP3 SWAP2 POP POP JUMP JUMPDEST PUSH32 0x4E487B7100000000000000000000000000000000000000000000000000000000 PUSH1 0x0 MSTORE PUSH1 0x32 PUSH1 0x4 MSTORE PUSH1 0x24 PUSH1 0x0 REVERT JUMPDEST PUSH32 0x4E487B7100000000000000000000000000000000000000000000000000000000 PUSH1 0x0 MSTORE PUSH1 0x11 PUSH1 0x4 MSTORE PUSH1 0x24 PUSH1 0x0 REVERT JUMPDEST PUSH1 0x0 PUSH2 0x291 DUP3 PUSH2 0x1F4 JUMP JUMPDEST SWAP2 POP PUSH32 0xFFFFFFFFFFFFFFFFFFFFFFFFFFFFFFFFFFFFFFFFFFFFFFFFFFFFFFFFFFFFFFFF DUP3 SUB PUSH2 0x2C3 JUMPI PUSH2 0x2C2 PUSH2 0x257 JUMP JUMPDEST JUMPDEST PUSH1 0x1 DUP3 ADD SWAP1 POP SWAP2 SWAP1 POP JUMP JUMPDEST PUSH1 0x0 PUSH2 0x2D9 DUP3 PUSH2 0x1F4 JUMP JUMPDEST SWAP2 POP PUSH2 0x2E4 DUP4 PUSH2 0x1F4 JUMP JUMPDEST SWAP3 POP DUP3 DUP3 ADD SWAP1 POP DUP1 DUP3 GT ISZERO PUSH2 0x2FC JUMPI PUSH2 0x2FB PUSH2 0x257 JUMP JUMPDEST JUMPDEST SWAP3 SWAP2 POP POP JUMP INVALID LOG2 PUSH5 0x6970667358 0x22 SLT KECCAK256 PUSH2 0x5A8A DUP15 0xB0 REVERT PUSH6 0x29FAE69D35FC 0xA6 0xB4 SWAP6 PUSH11 0x4065C5074DEECECD81E160 GASPRICE PUSH22 0xA2B764736F6C63430008120033000000000000000000 "},"methodIdentifiers":{"getSumOfArray()":"80d2c803","notOptimizedFunction()":"68b5f223","optimizedFunction()":"7ce41894"}}}}}